:03000000020A737E
:0C0A7300787FE4F6D8FD758120020ABAF5
:080BAE00C100C101020A0000B0
:100B8800759850758921758780758DF4758BF4E497
:0D0B9800F58CF58AD2ACD2A9D2AFD28E2254
:100B6A00D3EF9400EE940040147D6E7C00ED1D706E
:0D0B7A00011CED4C70F7EF1F70E61E80E3CC
:010B8700224B
:100AFF00AF8CEFFEAD8A7C00E42DF50BEC3EF50AD2
:100B0F00E4F58CF58AAC0AAD0B1209AB7B9A7A9996
:100B1F0079D9783F120800E4FBFA79C878421209B4
:090B2F00091209E48E0C8F0D225D
:100B3800120B8875CBFF75CA067508017509F4751F
:100B480008007509007FC87E00120B6A30A0FDD22C
:100B58008C20A0FDC28C120AFF7F507E00120B6A07
:020B680080D13A
:03000B00020BBE27
:050BBE00D200B2A132DB
:03002300020BA528
:090BA500850D993099FDC29932C9
:03002B00020BB70E
:070BB700C2CFB2A1D201324E
:10080000EC4D6011E8497017ED33EC3304600DE4F2
:10081000FCFFFEFD22E933E8330470F8020A5012AF
:100820000A1B58046009E4CC2481500628500902B0
:100830000A5A284003020A57C0E0EB4A7044B980C4
:1008400006D0E0FB020A46EF4E701CBD8008EBFFAD
:10085000EAFEE9FD80EBE98DF0A4FEE5F00208E98F
:10086000E9CDF9EAFEEBFFEF89F0A4FCE5F0CE89D3
:10087000F0A42EFFE435F0CD89F0A42DFEE435F090
:100880008067EF4E7005BD80D780C3EF8BF0A4ACBE
:10089000F0EE8BF0A42CFCE435F0F8EF8AF0A42CF9
:1008A000E5F038FCE433CB8DF0A42CFCE5F03BF80C
:1008B000EE8AF0A42CFCE5F038F8E433CF89F0A4FC
:1008C0002CFCE5F038CF3400CE89F0A42FFFE5F002
:1008D0003EFEE433C98DF0A42EFEE5F039CD8AF05A
:1008E000A42FFFE5F03EFEE43DFD33D0E0FB5007D2
:1008F0000BBB000F020A5AEC2CFCEF33FFEE33FE69
:06090000ED33FD020A3296
:10090600020A5AEC5D046005E859047003020A50B5
:10091600120A1B580460F6EC4860F2EC7004FDFE07
:10092600FF22C860DB2481C85009C39860025006C4
:10093600020A579850CAF582E9294B4A7005AB82DC
:10094600020A4675F0007C1A7880C3EF9BEE9AED9A
:1009560099400DC3EF9BFFEE9AFEED99FDE842F03C
:10096600DC23ACF0D0E0FFD0E0FED0E0FDAB82208F
:10097600E7101BEB60BAEC2CFCEF33FFEE33FEED19
:1009860033FD020A32E803F830E705C0F075F000DF
:10099600EF2FFFEE33FEED33FD40B830E7C280AAFD
:1009A60075F020800E75F010800575F0087D007ECC
:1009B600007F003392D530D503120A65EC33401020
:1009C600EF33FFEE33FEED33FDEC33FCD5F0ED22D5
:0E09D600E5F0247EA2D513CC92E7CDCEFF2211
:1009E400EDD2E7CD33EC3392D524814006E4FFFE0B
:1009F400FDFC22FCE4CFCECDCC24E0501174FF806A
:100A0400EDC3CC13CCCD13CDCE13CECF13CF047006
:070A1400F030D5DE020A6597
:100A1B00E9D2E7C933E833F892D5EDD2E7CD33EC21
:070A2B0033FC5002B2D5229A
:100A3200EC30E7100FBF000C0EBE00080DBD000425
:100A42000BEB6014A2D5EB13FCED92E7FD2274FFD1
:100A5200FCFDFEFF22E480F8A2D574FF13FC7D802A
:030A6200E480EF3E
:100A7F00020B38E493A3F8E493A34003F68001F24A
:100A8F0008DFF48029E493A3F85407240CC8C33378
:100A9F00C4540F4420C8834004F456800146F6DF47
:100AAF00E4800B0102040810204080900BAEE47E1E
:100ABF00019360BCA3FF543F30E509541FFEE4933C
:100ACF00A360010ECF54C025E060A840B8E493A303
:100ADF00FAE493A3F8E493A3C8C582C8CAC583CA2E
:100AEF00F0A3C8C582C8CAC583CADFE9DEE780BEE6
:010BB600003E
:0E0A6500C3E49FFFE49EFEE49DFDE49CFC22A2
:00000001FF
